:03000000020030CB
:03000B00020214DA
:1000300075400075410075420075390075380075CE
:100040004E00780075A88A758911758A00758CDC58
:10005000D28C74FFF580900337C2B0C2B100D2B029
:10006000D2B1007562007563001200B5E54EB400B0
:100070000312007C12018E12024680F0756200129B
:100080000106E5631200EAF5401200AD7562011247
:100090000106E5631200EAF5411200AD7562021235
:1000A0000106E5631200EAF5421200AD22C2B1D2A8
:1000B000B000D2B122C2B1C2B074D012014AD2B1E2
:1000C000D2B020B1F0C2B0E56212014AD2B1D2B0D2
:1000D00020B1E2C2B0E56312014AD2B1D2B020B180
:1000E000D4C2B1C2B0D2B0D2B12275F0108485F0C2
:1000F0003775F00AA425372275F00A8485F0377524
:10010000F010A4253722C2B1C2B074D012014AD275
:10011000B1D2B020B1F0C2B0E56212014AD2B1D280
:10012000B020B1E2C2B0D2B0D2B1C2B1C2B074D1CB
:1001300012014AD2B1D2B020B1CCC2B012015AD20F
:10014000B1D2B0C2B0D2B0D2B122C0027A083392DA
:10015000B1D2B0C2B0DAF7D00222C0027A08D2B06F
:10016000A2B1C2B033DAF7F563D00222E54075F0F0
:100170000A84F54885F047E54175F00A84F54A851B
:10018000F049E54275F00A84F54C85F04B22E54EC6
:10019000B400051201A821A7E539B400051201A891
:1001A00021A71201B280F1221201C91201E212014B
:1001B000FB22E54EB401061201C91201FBE54EB463
:1001C00002061201C91201E222E54793F580C2A09E
:1001D000120306D2A0E54893F580C2A1120306D20D
:1001E000A122E54993F580C2A2120306D2A2E54AF4
:1001F00093F580C2A3120306D2A322E54B93F580A8
:10020000C2A4120306D2A4E54C93F580C2A5120342
:1002100006D2A5220538054D758A00758CDCD28C76
:10022000C0E0C0D0E538B4190D7538000539E5399E
:10023000B40303753900E54DB46403754D00120134
:100240006CD0D0D0E03220B231054EE54EB4031B65
:10025000E54111F8F5637562011200B5E54211F848
:10026000F5637562021200B5754E0012030B12039E
:100270000B12030B12030B02030520B341E54EB42E
:100280000003020305E54EB4011620B3310541E534
:1002900041B43C0375410012030B12030B02027AB6
:1002A00020B31BE54EB4021620B3130542E542B459
:1002B000180375420012030B12030B0202A020B4B4
:1002C00044E54EB40003020305E54EB4011620B424
:1002D000341541E541B4FF0375413B12030B120392
:1002E0000B0202BE20B41EE54EB402191201A82072
:1002F000B4131542E542B4FF0375421712030B1203
:10030000030B0202E4227FC8DFFE22C000C0017995
:100310001012018E12018E12018E78FAD8FED9F1D8
:10032000D001D000227FC87EC8DEFEDFFA220000A6
:1003300000000000000022C0F9A4B0999282F88069
:02034000902209
:00000001FF
